{
  "contractName": "DocumentSigner",
  "abi": [
    {
      "anonymous": false,
      "inputs": [
        {
          "indexed": true,
          "internalType": "uint256",
          "name": "documentId",
          "type": "uint256"
        },
        {
          "indexed": true,
          "internalType": "address",
          "name": "signer",
          "type": "address"
        },
        {
          "indexed": false,
          "internalType": "string",
          "name": "content",
          "type": "string"
        },
        {
          "indexed": false,
          "internalType": "uint256",
          "name": "timestamp",
          "type": "uint256"
        }
      ],
      "name": "DocumentSigned",
      "type": "event"
    },
    {
      "inputs": [
        {
          "internalType": "address",
          "name": "",
          "type": "address"
        },
        {
          "internalType": "uint256",
          "name": "",
          "type": "uint256"
        }
      ],
      "name": "userDocuments",
      "outputs": [
        {
          "internalType": "uint256",
          "name": "id",
          "type": "uint256"
        },
        {
          "internalType": "string",
          "name": "content",
          "type": "string"
        },
        {
          "internalType": "address",
          "name": "signer",
          "type": "address"
        },
        {
          "internalType": "uint256",
          "name": "timestamp",
          "type": "uint256"
        }
      ],
      "stateMutability": "view",
      "type": "function",
      "constant": true
    },
    {
      "inputs": [
        {
          "internalType": "string",
          "name": "document",
          "type": "string"
        }
      ],
      "name": "signDocument",
      "outputs": [],
      "stateMutability": "nonpayable",
      "type": "function"
    },
    {
      "inputs": [],
      "name": "getMyDocuments",
      "outputs": [
        {
          "components": [
            {
              "internalType": "uint256",
              "name": "id",
              "type": "uint256"
            },
            {
              "internalType": "string",
              "name": "content",
              "type": "string"
            },
            {
              "internalType": "address",
              "name": "signer",
              "type": "address"
            },
            {
              "internalType": "uint256",
              "name": "timestamp",
              "type": "uint256"
            }
          ],
          "internalType": "struct DocumentSigner.Document[]",
          "name": "",
          "type": "tuple[]"
        }
      ],
      "stateMutability": "view",
      "type": "function",
      "constant": true
    }
  ],
  "bytecode": "0x608060405234801561001057600080fd5b50610d90806100206000396000f3fe608060405234801561001057600080fd5b50600436106100415760003560e01c80633040298a14610046578063577a1b92146100625780639111976e14610095575b600080fd5b610060600480360381019061005b9190610620565b6100b3565b005b61007c600480360381019061007791906106fd565b61023a565b60405161008c94939291906107da565b60405180910390f35b61009d61032f565b6040516100aa91906109b3565b60405180910390f35b600160008154809291906100c690610a04565b91905055506000604051806080016040528060015481526020018381526020013373ffffffffffffffffffffffffffffffffffffffff1681526020014281525090506000803373ffffffffffffffffffffffffffffffffffffffff1673ffffffffffffffffffffffffffffffffffffffff16815260200190815260200160002081908060018154018082558091505060019003906000526020600020906004020160009091909190915060008201518160000155602082015181600101908161018f9190610c58565b5060408201518160020160006101000a81548173ffffffffffffffffffffffffffffffffffffffff021916908373ffffffffffffffffffffffffffffffffffffffff1602179055506060820151816003015550503373ffffffffffffffffffffffffffffffffffffffff166001547ff9b39ebb4406ebcfed3d1cf63aebce4bd0981e55b2c54912fb6f9532c86cf72b844260405161022e929190610d2a565b60405180910390a35050565b6000602052816000526040600020818154811061025657600080fd5b90600052602060002090600402016000915091505080600001549080600101805461028090610a7b565b80601f01602080910402602001604051908101604052809291908181526020018280546102ac90610a7b565b80156102f95780601f106102ce576101008083540402835291602001916102f9565b820191906000526020600020905b8154815290600101906020018083116102dc57829003601f168201915b5050505050908060020160009054906101000a900473ffffffffffffffffffffffffffffffffffffffff16908060030154905084565b60606000803373ffffffffffffffffffffffffffffffffffffffff1673ffffffffffffffffffffffffffffffffffffffff168152602001908152602001600020805480602002602001604051908101604052809291908181526020016000905b828210156104bd5783829060005260206000209060040201604051806080016040529081600082015481526020016001820180546103cc90610a7b565b80601f01602080910402602001604051908101604052809291908181526020018280546103f890610a7b565b80156104455780601f1061041a57610100808354040283529160200191610445565b820191906000526020600020905b81548152906001019060200180831161042857829003601f168201915b505050505081526020016002820160009054906101000a900473ffffffffffffffffffffffffffffffffffffffff1673ffffffffffffffffffffffffffffffffffffffff1673ffffffffffffffffffffffffffffffffffffffff1681526020016003820154815250508152602001906001019061038f565b50505050905090565b6000604051905090565b600080fd5b600080fd5b600080fd5b600080fd5b6000601f19601f8301169050919050565b7f4e487b7100000000000000000000000000000000000000000000000000000000600052604160045260246000fd5b61052d826104e4565b810181811067ffffffffffffffff8211171561054c5761054b6104f5565b5b80604052505050565b600061055f6104c6565b905061056b8282610524565b919050565b600067ffffffffffffffff82111561058b5761058a6104f5565b5b610594826104e4565b9050602081019050919050565b82818337600083830152505050565b60006105c36105be84610570565b610555565b9050828152602081018484840111156105df576105de6104df565b5b6105ea8482856105a1565b509392505050565b600082601f830112610607576106066104da565b5b81356106178482602086016105b0565b91505092915050565b600060208284031215610636576106356104d0565b5b600082013567ffffffffffffffff811115610654576106536104d5565b5b610660848285016105f2565b91505092915050565b600073ffffffffffffffffffffffffffffffffffffffff82169050919050565b600061069482610669565b9050919050565b6106a481610689565b81146106af57600080fd5b50565b6000813590506106c18161069b565b92915050565b6000819050919050565b6106da816106c7565b81146106e557600080fd5b50565b6000813590506106f7816106d1565b92915050565b60008060408385031215610714576107136104d0565b5b6000610722858286016106b2565b9250506020610733858286016106e8565b9150509250929050565b610746816106c7565b82525050565b600081519050919050565b600082825260208201905092915050565b60005b8381101561078657808201518184015260208101905061076b565b60008484015250505050565b600061079d8261074c565b6107a78185610757565b93506107b7818560208601610768565b6107c0816104e4565b840191505092915050565b6107d481610689565b82525050565b60006080820190506107ef600083018761073d565b81810360208301526108018186610792565b905061081060408301856107cb565b61081d606083018461073d565b95945050505050565b600081519050919050565b600082825260208201905092915050565b6000819050602082019050919050565b61085b816106c7565b82525050565b600082825260208201905092915050565b600061087d8261074c565b6108878185610861565b9350610897818560208601610768565b6108a0816104e4565b840191505092915050565b6108b481610689565b82525050565b60006080830160008301516108d26000860182610852565b50602083015184820360208601526108ea8282610872565b91505060408301516108ff60408601826108ab565b5060608301516109126060860182610852565b508091505092915050565b600061092983836108ba565b905092915050565b6000602082019050919050565b600061094982610826565b6109538185610831565b93508360208202850161096585610842565b8060005b858110156109a15784840389528151610982858261091d565b945061098d83610931565b925060208a01995050600181019050610969565b50829750879550505050505092915050565b600060208201905081810360008301526109cd818461093e565b905092915050565b7f4e487b7100000000000000000000000000000000000000000000000000000000600052601160045260246000fd5b6000610a0f826106c7565b91507fffffffffffffffffffffffffffffffffffffffffffffffffffffffffffffffff8203610a4157610a406109d5565b5b600182019050919050565b7f4e487b7100000000000000000000000000000000000000000000000000000000600052602260045260246000fd5b60006002820490506001821680610a9357607f821691505b602082108103610aa657610aa5610a4c565b5b50919050565b60008190508160005260206000209050919050565b60006020601f8301049050919050565b600082821b905092915050565b600060088302610b0e7fffffffffffffffffffffffffffffffffffffffffffffffffffffffffffffffff82610ad1565b610b188683610ad1565b95508019841693508086168417925050509392505050565b6000819050919050565b6000610b55610b50610b4b846106c7565b610b30565b6106c7565b9050919050565b6000819050919050565b610b6f83610b3a565b610b83610b7b82610b5c565b848454610ade565b825550505050565b600090565b610b98610b8b565b610ba3818484610b66565b505050565b5b81811015610bc757610bbc600082610b90565b600181019050610ba9565b5050565b601f821115610c0c57610bdd81610aac565b610be684610ac1565b81016020851015610bf5578190505b610c09610c0185610ac1565b830182610ba8565b50505b505050565b600082821c905092915050565b6000610c2f60001984600802610c11565b1980831691505092915050565b6000610c488383610c1e565b9150826002028217905092915050565b610c618261074c565b67ffffffffffffffff811115610c7a57610c796104f5565b5b610c848254610a7b565b610c8f828285610bcb565b600060209050601f831160018114610cc25760008415610cb0578287015190505b610cba8582610c3c565b865550610d22565b601f198416610cd086610aac565b60005b82811015610cf857848901518255600182019150602085019450602081019050610cd3565b86831015610d155784890151610d11601f891682610c1e565b8355505b6001600288020188555050505b505050505050565b60006040820190508181036000830152610d448185610792565b9050610d53602083018461073d565b939250505056fea264697066735822122031b089fdf44dd94b577ad259e7aadbbacfa8502f7ed9da58bfe05f9f2035f31064736f6c63430008130033",
  "immutableReferences": {},
  "source": "//SPDX-License-Identifier: MIT\npragma solidity ^0.8.2;\n\ncontract DocumentSigner {\n    struct Document {\n        uint256 id;\n        string content;\n        address signer;\n        uint256 timestamp;\n    }\n\n    mapping(address => Document[]) public userDocuments;\n    uint256 private documentCounter;\n\n    event DocumentSigned(uint256 indexed documentId, address indexed signer, string content, uint256 timestamp);\n\n    function signDocument(string memory document) public {\n        documentCounter++;\n        Document memory newDocument = Document(documentCounter, document, msg.sender, block.timestamp);\n        userDocuments[msg.sender].push(newDocument);\n        emit DocumentSigned(documentCounter, msg.sender, document, block.timestamp);\n    }\n\n    function getMyDocuments() public view returns (Document[] memory) {\n        return userDocuments[msg.sender];\n    }\n}\n",
  "sourcePath": "/home/davi-2ndmarket/Desktop/document-signer-dapp/contracts/DocumentSigned.sol",
  "compiler": {
    "name": "solc",
    "version": "0.8.19+commit.7dd6d404.Emscripten.clang"
  },
  "schemaVersion": "3.4.4",
  "updatedAt": "2023-04-03T18:34:03.925Z",
  "networkType": "ethereum",
  "devdoc": {
    "kind": "dev",
    "methods": {},
    "version": 1
  },
  "userdoc": {
    "kind": "user",
    "methods": {},
    "version": 1
  }
}